{
  "contractName": "Lottery",
  "abi": [
    {
      "inputs": [],
      "payable": false,
      "stateMutability": "nonpayable",
      "type": "constructor"
    },
    {
      "anonymous": false,
      "inputs": [
        {
          "indexed": false,
          "internalType": "string",
          "name": "message",
          "type": "string"
        },
        {
          "indexed": false,
          "internalType": "uint256",
          "name": "index",
          "type": "uint256"
        }
      ],
      "name": "Control",
      "type": "event"
    },
    {
      "constant": true,
      "inputs": [],
      "name": "manager",
      "outputs": [
        {
          "internalType": "address",
          "name": "",
          "type": "address"
        }
      ],
      "payable": false,
      "stateMutability": "view",
      "type": "function"
    },
    {
      "constant": true,
      "inputs": [
        {
          "internalType": "uint256",
          "name": "",
          "type": "uint256"
        }
      ],
      "name": "players",
      "outputs": [
        {
          "internalType": "address payable",
          "name": "",
          "type": "address"
        }
      ],
      "payable": false,
      "stateMutability": "view",
      "type": "function"
    },
    {
      "constant": false,
      "inputs": [],
      "name": "enter",
      "outputs": [],
      "payable": true,
      "stateMutability": "payable",
      "type": "function"
    },
    {
      "constant": false,
      "inputs": [],
      "name": "pickWinner",
      "outputs": [],
      "payable": false,
      "stateMutability": "nonpayable",
      "type": "function"
    },
    {
      "constant": true,
      "inputs": [],
      "name": "getPlayers",
      "outputs": [
        {
          "internalType": "address payable[]",
          "name": "",
          "type": "address[]"
        }
      ],
      "payable": false,
      "stateMutability": "view",
      "type": "function"
    },
    {
      "constant": true,
      "inputs": [],
      "name": "test",
      "outputs": [
        {
          "internalType": "string",
          "name": "",
          "type": "string"
        }
      ],
      "payable": false,
      "stateMutability": "pure",
      "type": "function"
    }
  ],
  "bytecode": "0x608060405234801561001057600080fd5b50336000806101000a81548173ffffffffffffffffffffffffffffffffffffffff021916908373ffffffffffffffffffffffffffffffffffffffff1602179055506107a8806100606000396000f3fe6080604052600436106100555760003560e01c8063481c6a751461005a5780635d495aea146100b15780638b5b9ccc146100c8578063e97dcb6214610134578063f71d96cb1461013e578063f8a8fd6d146101b9575b600080fd5b34801561006657600080fd5b5061006f610249565b604051808273ffffffffffffffffffffffffffffffffffffffff1673ffffffffffffffffffffffffffffffffffffffff16815260200191505060405180910390f35b3480156100bd57600080fd5b506100c661026e565b005b3480156100d457600080fd5b506100dd610482565b6040518080602001828103825283818151815260200191508051906020019060200280838360005b83811015610120578082015181840152602081019050610105565b505050509050019250505060405180910390f35b61013c610510565b005b34801561014a57600080fd5b506101776004803603602081101561016157600080fd5b810190808035906020019092919050505061058b565b604051808273ffffffffffffffffffffffffffffffffffffffff1673ffffffffffffffffffffffffffffffffffffffff16815260200191505060405180910390f35b3480156101c557600080fd5b506101ce6105c7565b6040518080602001828103825283818151815260200191508051906020019080838360005b8381101561020e5780820151818401526020810190506101f3565b50505050905090810190601f16801561023b5780820380516001836020036101000a031916815260200191505b509250505060405180910390f35b6000809054906101000a900473ffffffffffffffffffffffffffffffffffffffff1681565b6000809054906101000a900473ffffffffffffffffffffffffffffffffffffffff1673ffffffffffffffffffffffffffffffffffffffff163373ffffffffffffffffffffffffffffffffffffffff1614610330576040517f08c379a00000000000000000000000000000000000000000000000000000000081526004018080602001828103825260158152602001807f596f7520617265206e6f7420746865206f776e6572000000000000000000000081525060200191505060405180910390fd5b6000600180549050610340610604565b8161034757fe5b0690507f8dde0dea603535ed4cbe028ef9d077bc0d58eb30343723d775247713cc848e7a816040518080602001838152602001828103825260088152602001807f536f6e6f207175610000000000000000000000000000000000000000000000008152506020019250505060405180910390a1600181815481106103c757fe5b9060005260206000200160009054906101000a900473ffffffffffffffffffffffffffffffffffffffff1673ffffffffffffffffffffffffffffffffffffffff166108fc479081150290604051600060405180830381858888f19350505050158015610437573d6000803e3d6000fd5b5060006040519080825280602002602001820160405280156104685781602001602082028038833980820191505090505b506001908051906020019061047e9291906106a6565b5050565b6060600180548060200260200160405190810160405280929190818152602001828054801561050657602002820191906000526020600020905b8160009054906101000a900473ffffffffffffffffffffffffffffffffffffffff1673ffffffffffffffffffffffffffffffffffffffff16815260200190600101908083116104bc575b5050505050905090565b662386f26fc10000341161052357600080fd5b60013390806001815401808255809150509060018203906000526020600020016000909192909190916101000a81548173ffffffffffffffffffffffffffffffffffffffff021916908373ffffffffffffffffffffffffffffffffffffffff16021790555050565b6001818154811061059857fe5b906000526020600020016000915054906101000a900473ffffffffffffffffffffffffffffffffffffffff1681565b60606040518060400160405280601281526020017f4576657279207468696e67206973206f6b210000000000000000000000000000815250905090565b60004442600160405160200180848152602001838152602001828054801561068157602002820191906000526020600020905b8160009054906101000a900473ffffffffffffffffffffffffffffffffffffffff1673ffffffffffffffffffffffffffffffffffffffff1681526020019060010190808311610637575b505093505050506040516020818303038152906040528051906020012060001c905090565b82805482825590600052602060002090810192821561071f579160200282015b8281111561071e5782518260006101000a81548173ffffffffffffffffffffffffffffffffffffffff021916908373ffffffffffffffffffffffffffffffffffffffff160217905550916020019190600101906106c6565b5b50905061072c9190610730565b5090565b61077091905b8082111561076c57600081816101000a81549073ffffffffffffffffffffffffffffffffffffffff021916905550600101610736565b5090565b9056fea265627a7a723158209fbbfd89e8ef8c1ff7d911c778f60b06ff8dd62c489e68c43db4249f24f37bf064736f6c63430005100032",
  "source": "// SPDX-License-Identifier: MIT\r\npragma solidity >= 0.4.0 < 0.8.0;\r\n\r\ncontract Lottery{\r\n    address public manager;\r\n    address payable[] public players;\r\n    \r\n    modifier restricter(){\r\n        require(msg.sender == manager, \"You are not the owner\");\r\n        _;\r\n    }\r\n\r\n    event Control(string message, uint index);\r\n    \r\n    constructor() public{\r\n        manager = msg.sender;\r\n    }\r\n    \r\n    // a player enter in the lottery and send the amount to play\r\n    function enter() public payable {\r\n        // amount in wei the value of 0.01 ether\r\n        require(msg.value > .01 ether);\r\n        \r\n        // insert into the lottery\r\n        players.push(msg.sender);\r\n    }\r\n    \r\n    function random() private view returns(uint256) {\r\n        return uint256(keccak256(abi.encodePacked(block.difficulty, block.timestamp ,players)));\r\n    }\r\n    \r\n    // select a random player and reset all\r\n    function pickWinner() public restricter {\r\n        uint256 index = random() % players.length;\r\n\r\n        emit Control(\"Sono qua\", index);\r\n        \r\n        // give to the winner all the money with tranfer(this.balance)\r\n        players[index].transfer(address(this).balance);\r\n        \r\n        //reset\r\n        players = new address payable[](0);\r\n        \r\n    }\r\n    \r\n    function getPlayers() public view returns(address payable[] memory) {\r\n        return players;\r\n    }\r\n\r\n    function test () public pure returns (string memory) {\r\n        return \"Every thing is ok!\";\r\n    }\r\n}",
  "sourcePath": "C:\\Users\\georg\\Desktop\\Code\\BlockChain\\lotteryApp\\contracts\\Lottery.sol",
  "compiler": {
    "name": "solc",
    "version": "0.5.16+commit.9c3226ce.Emscripten.clang"
  },
  "schemaVersion": "3.0.23",
  "updatedAt": "2020-11-15T12:58:41.162Z",
  "networkType": "ethereum",
  "devdoc": {
    "methods": {}
  },
  "userdoc": {
    "methods": {}
  }
}