{
  "contractName": "Lottery",
  "abi": [
    {
      "inputs": [],
      "payable": false,
      "stateMutability": "nonpayable",
      "type": "constructor"
    },
    {
      "constant": true,
      "inputs": [],
      "name": "manager",
      "outputs": [
        {
          "internalType": "address",
          "name": "",
          "type": "address"
        }
      ],
      "payable": false,
      "stateMutability": "view",
      "type": "function"
    },
    {
      "constant": true,
      "inputs": [
        {
          "internalType": "uint256",
          "name": "",
          "type": "uint256"
        }
      ],
      "name": "players",
      "outputs": [
        {
          "internalType": "address payable",
          "name": "",
          "type": "address"
        }
      ],
      "payable": false,
      "stateMutability": "view",
      "type": "function"
    },
    {
      "constant": false,
      "inputs": [],
      "name": "enter",
      "outputs": [],
      "payable": true,
      "stateMutability": "payable",
      "type": "function"
    },
    {
      "constant": false,
      "inputs": [],
      "name": "pickWinner",
      "outputs": [],
      "payable": false,
      "stateMutability": "nonpayable",
      "type": "function"
    },
    {
      "constant": true,
      "inputs": [],
      "name": "getPlayers",
      "outputs": [
        {
          "internalType": "address payable[]",
          "name": "",
          "type": "address[]"
        }
      ],
      "payable": false,
      "stateMutability": "view",
      "type": "function"
    },
    {
      "constant": true,
      "inputs": [],
      "name": "test",
      "outputs": [
        {
          "internalType": "string",
          "name": "",
          "type": "string"
        }
      ],
      "payable": false,
      "stateMutability": "pure",
      "type": "function"
    }
  ],
  "bytecode": "0x608060405234801561001057600080fd5b50336000806101000a81548173ffffffffffffffffffffffffffffffffffffffff021916908373ffffffffffffffffffffffffffffffffffffffff1602179055506106cf806100606000396000f3fe6080604052600436106100555760003560e01c8063481c6a751461005a5780635d495aea146100b15780638b5b9ccc146100c8578063e97dcb6214610134578063f71d96cb1461013e578063f8a8fd6d146101b9575b600080fd5b34801561006657600080fd5b5061006f610249565b604051808273ffffffffffffffffffffffffffffffffffffffff1673ffffffffffffffffffffffffffffffffffffffff16815260200191505060405180910390f35b3480156100bd57600080fd5b506100c661026e565b005b3480156100d457600080fd5b506100dd6103a9565b6040518080602001828103825283818151815260200191508051906020019060200280838360005b83811015610120578082015181840152602081019050610105565b505050509050019250505060405180910390f35b61013c610437565b005b34801561014a57600080fd5b506101776004803603602081101561016157600080fd5b81019080803590602001909291905050506104b2565b604051808273ffffffffffffffffffffffffffffffffffffffff1673ffffffffffffffffffffffffffffffffffffffff16815260200191505060405180910390f35b3480156101c557600080fd5b506101ce6104ee565b6040518080602001828103825283818151815260200191508051906020019080838360005b8381101561020e5780820151818401526020810190506101f3565b50505050905090810190601f16801561023b5780820380516001836020036101000a031916815260200191505b509250505060405180910390f35b6000809054906101000a900473ffffffffffffffffffffffffffffffffffffffff1681565b6000809054906101000a900473ffffffffffffffffffffffffffffffffffffffff1673ffffffffffffffffffffffffffffffffffffffff163373ffffffffffffffffffffffffffffffffffffffff16146102c757600080fd5b60006001805490506102d761052b565b816102de57fe5b069050600181815481106102ee57fe5b9060005260206000200160009054906101000a900473ffffffffffffffffffffffffffffffffffffffff1673ffffffffffffffffffffffffffffffffffffffff166108fc479081150290604051600060405180830381858888f1935050505015801561035e573d6000803e3d6000fd5b50600060405190808252806020026020018201604052801561038f5781602001602082028038833980820191505090505b50600190805190602001906103a59291906105cd565b5050565b6060600180548060200260200160405190810160405280929190818152602001828054801561042d57602002820191906000526020600020905b8160009054906101000a900473ffffffffffffffffffffffffffffffffffffffff1673ffffffffffffffffffffffffffffffffffffffff16815260200190600101908083116103e3575b5050505050905090565b662386f26fc10000341161044a57600080fd5b60013390806001815401808255809150509060018203906000526020600020016000909192909190916101000a81548173ffffffffffffffffffffffffffffffffffffffff021916908373ffffffffffffffffffffffffffffffffffffffff16021790555050565b600181815481106104bf57fe5b906000526020600020016000915054906101000a900473ffffffffffffffffffffffffffffffffffffffff1681565b60606040518060400160405280601281526020017f4576657279207468696e67206973206f6b210000000000000000000000000000815250905090565b6000444260016040516020018084815260200183815260200182805480156105a857602002820191906000526020600020905b8160009054906101000a900473ffffffffffffffffffffffffffffffffffffffff1673ffffffffffffffffffffffffffffffffffffffff168152602001906001019080831161055e575b505093505050506040516020818303038152906040528051906020012060001c905090565b828054828255906000526020600020908101928215610646579160200282015b828111156106455782518260006101000a81548173ffffffffffffffffffffffffffffffffffffffff021916908373ffffffffffffffffffffffffffffffffffffffff160217905550916020019190600101906105ed565b5b5090506106539190610657565b5090565b61069791905b8082111561069357600081816101000a81549073ffffffffffffffffffffffffffffffffffffffff02191690555060010161065d565b5090565b9056fea265627a7a7231582026678508a028bb99be0ad83914c8878e31bd28dfe2067b72b22681bc3657fe2d64736f6c63430005100032",
  "source": "// SPDX-License-Identifier: MIT\r\npragma solidity >= 0.4.0 < 0.8.0;\r\n\r\ncontract Lottery{\r\n    address public manager;\r\n    address payable[] public players;\r\n    \r\n    modifier restricter(){\r\n        require(msg.sender == manager);\r\n        _;\r\n    }\r\n    \r\n    constructor() public {\r\n        manager = msg.sender;\r\n    }\r\n    \r\n    // a player enter in the lottery and send the amount to play\r\n    function enter() public payable {\r\n        // amount in wei the value of 0.01 ether\r\n        require(msg.value > .01 ether);\r\n        \r\n        // insert into the lottery\r\n        players.push(msg.sender);\r\n    }\r\n    \r\n    function random() private view returns(uint256) {\r\n        return uint256(keccak256(abi.encodePacked(block.difficulty, block.timestamp ,players)));\r\n    }\r\n    \r\n    // select a random player and reset all\r\n    function pickWinner() public restricter {\r\n        uint256 index = random() % players.length;\r\n        \r\n        // give to the winner all the money with tranfer(this.balance)\r\n        players[index].transfer(address(this).balance);\r\n        \r\n        //reset\r\n        players = new address payable[](0);\r\n        \r\n    }\r\n    \r\n    function getPlayers() public view returns(address payable[] memory) {\r\n        return players;\r\n    }\r\n\r\n    function test () public pure returns (string memory) {\r\n        return \"Every thing is ok!\";\r\n    }\r\n}",
  "sourcePath": "C:\\Users\\georg\\Desktop\\Code\\BlockChain\\lotteryApp\\contracts\\Lottery.sol",
  "compiler": {
    "name": "solc",
    "version": "0.5.16+commit.9c3226ce.Emscripten.clang"
  },
  "schemaVersion": "3.0.23",
  "updatedAt": "2020-11-14T16:20:50.623Z",
  "networkType": "ethereum",
  "devdoc": {
    "methods": {}
  },
  "userdoc": {
    "methods": {}
  }
}